{
  "address": "0x2a80dE932AC14858BC96Cd6F09C2E1E7C7fd271a",
  "abi": [
    {
      "inputs": [],
      "name": "EntryNotFound",
      "type": "error"
    },
    {
      "inputs": [],
      "name": "InvalidScore",
      "type": "error"
    },
    {
      "inputs": [],
      "name": "Unauthorized",
      "type": "error"
    },
    {
      "anonymous": false,
      "inputs": [
        {
          "indexed": true,
          "internalType": "address",
          "name": "user",
          "type": "address"
        },
        {
          "indexed": true,
          "internalType": "uint256",
          "name": "entryId",
          "type": "uint256"
        }
      ],
      "name": "EntryDeleted",
      "type": "event"
    },
    {
      "anonymous": false,
      "inputs": [
        {
          "indexed": true,
          "internalType": "address",
          "name": "user",
          "type": "address"
        },
        {
          "indexed": true,
          "internalType": "uint256",
          "name": "entryId",
          "type": "uint256"
        },
        {
          "indexed": false,
          "internalType": "uint256",
          "name": "timestamp",
          "type": "uint256"
        },
        {
          "indexed": false,
          "internalType": "bool",
          "name": "isPublic",
          "type": "bool"
        }
      ],
      "name": "EntrySubmitted",
      "type": "event"
    },
    {
      "anonymous": false,
      "inputs": [
        {
          "indexed": true,
          "internalType": "address",
          "name": "user",
          "type": "address"
        },
        {
          "indexed": false,
          "internalType": "bool",
          "name": "allowPublic",
          "type": "bool"
        }
      ],
      "name": "PrivacySettingUpdated",
      "type": "event"
    },
    {
      "anonymous": false,
      "inputs": [
        {
          "indexed": true,
          "internalType": "address",
          "name": "user",
          "type": "address"
        },
        {
          "indexed": false,
          "internalType": "uint256",
          "name": "timestamp",
          "type": "uint256"
        }
      ],
      "name": "UserRegistered",
      "type": "event"
    },
    {
      "inputs": [
        {
          "internalType": "uint256",
          "name": "entryId",
          "type": "uint256"
        }
      ],
      "name": "deleteEntry",
      "outputs": [],
      "stateMutability": "nonpayable",
      "type": "function"
    },
    {
      "inputs": [
        {
          "internalType": "uint256",
          "name": "",
          "type": "uint256"
        }
      ],
      "name": "entries",
      "outputs": [
        {
          "internalType": "uint256",
          "name": "id",
          "type": "uint256"
        },
        {
          "internalType": "address",
          "name": "author",
          "type": "address"
        },
        {
          "internalType": "euint8",
          "name": "moodScore",
          "type": "bytes32"
        },
        {
          "internalType": "euint8",
          "name": "stressScore",
          "type": "bytes32"
        },
        {
          "internalType": "euint8",
          "name": "sleepQuality",
          "type": "bytes32"
        },
        {
          "internalType": "euint32",
          "name": "moodTags",
          "type": "bytes32"
        },
        {
          "internalType": "euint256",
          "name": "diaryTextHash",
          "type": "bytes32"
        },
        {
          "internalType": "uint256",
          "name": "timestamp",
          "type": "uint256"
        },
        {
          "internalType": "bool",
          "name": "isPublic",
          "type": "bool"
        },
        {
          "internalType": "bool",
          "name": "isDeleted",
          "type": "bool"
        }
      ],
      "stateMutability": "view",
      "type": "function"
    },
    {
      "inputs": [
        {
          "internalType": "uint256",
          "name": "entryId",
          "type": "uint256"
        }
      ],
      "name": "getEntry",
      "outputs": [
        {
          "components": [
            {
              "internalType": "uint256",
              "name": "id",
              "type": "uint256"
            },
            {
              "internalType": "address",
              "name": "author",
              "type": "address"
            },
            {
              "internalType": "euint8",
              "name": "moodScore",
              "type": "bytes32"
            },
            {
              "internalType": "euint8",
              "name": "stressScore",
              "type": "bytes32"
            },
            {
              "internalType": "euint8",
              "name": "sleepQuality",
              "type": "bytes32"
            },
            {
              "internalType": "euint32",
              "name": "moodTags",
              "type": "bytes32"
            },
            {
              "internalType": "euint256",
              "name": "diaryTextHash",
              "type": "bytes32"
            },
            {
              "internalType": "uint256",
              "name": "timestamp",
              "type": "uint256"
            },
            {
              "internalType": "bool",
              "name": "isPublic",
              "type": "bool"
            },
            {
              "internalType": "bool",
              "name": "isDeleted",
              "type": "bool"
            }
          ],
          "internalType": "struct ZenChainDiary.DiaryEntry",
          "name": "entry",
          "type": "tuple"
        }
      ],
      "stateMutability": "view",
      "type": "function"
    },
    {
      "inputs": [
        {
          "internalType": "uint256",
          "name": "entryId",
          "type": "uint256"
        }
      ],
      "name": "getEntryMoodScore",
      "outputs": [
        {
          "internalType": "euint8",
          "name": "",
          "type": "bytes32"
        }
      ],
      "stateMutability": "view",
      "type": "function"
    },
    {
      "inputs": [
        {
          "internalType": "uint256",
          "name": "entryId",
          "type": "uint256"
        }
      ],
      "name": "getEntryMoodTags",
      "outputs": [
        {
          "internalType": "euint32",
          "name": "",
          "type": "bytes32"
        }
      ],
      "stateMutability": "view",
      "type": "function"
    },
    {
      "inputs": [
        {
          "internalType": "uint256",
          "name": "entryId",
          "type": "uint256"
        }
      ],
      "name": "getEntrySleepQuality",
      "outputs": [
        {
          "internalType": "euint8",
          "name": "",
          "type": "bytes32"
        }
      ],
      "stateMutability": "view",
      "type": "function"
    },
    {
      "inputs": [
        {
          "internalType": "uint256",
          "name": "entryId",
          "type": "uint256"
        }
      ],
      "name": "getEntryStressScore",
      "outputs": [
        {
          "internalType": "euint8",
          "name": "",
          "type": "bytes32"
        }
      ],
      "stateMutability": "view",
      "type": "function"
    },
    {
      "inputs": [
        {
          "internalType": "uint256",
          "name": "entryId",
          "type": "uint256"
        }
      ],
      "name": "getEntryTextHash",
      "outputs": [
        {
          "internalType": "euint256",
          "name": "",
          "type": "bytes32"
        }
      ],
      "stateMutability": "view",
      "type": "function"
    },
    {
      "inputs": [],
      "name": "getPublicEntryCount",
      "outputs": [
        {
          "internalType": "uint256",
          "name": "count",
          "type": "uint256"
        }
      ],
      "stateMutability": "view",
      "type": "function"
    },
    {
      "inputs": [
        {
          "internalType": "address",
          "name": "user",
          "type": "address"
        },
        {
          "internalType": "uint256",
          "name": "offset",
          "type": "uint256"
        },
        {
          "internalType": "uint256",
          "name": "limit",
          "type": "uint256"
        }
      ],
      "name": "getUserEntries",
      "outputs": [
        {
          "internalType": "uint256[]",
          "name": "entryIds",
          "type": "uint256[]"
        }
      ],
      "stateMutability": "view",
      "type": "function"
    },
    {
      "inputs": [
        {
          "internalType": "address",
          "name": "user",
          "type": "address"
        }
      ],
      "name": "getUserEntryCount",
      "outputs": [
        {
          "internalType": "uint256",
          "name": "count",
          "type": "uint256"
        }
      ],
      "stateMutability": "view",
      "type": "function"
    },
    {
      "inputs": [
        {
          "internalType": "address",
          "name": "user",
          "type": "address"
        }
      ],
      "name": "getUserProfile",
      "outputs": [
        {
          "components": [
            {
              "internalType": "bool",
              "name": "registered",
              "type": "bool"
            },
            {
              "internalType": "uint256",
              "name": "registeredAt",
              "type": "uint256"
            },
            {
              "internalType": "euint32",
              "name": "totalEntries",
              "type": "bytes32"
            },
            {
              "internalType": "euint64",
              "name": "sumMood",
              "type": "bytes32"
            },
            {
              "internalType": "euint64",
              "name": "sumStress",
              "type": "bytes32"
            },
            {
              "internalType": "euint64",
              "name": "sumSleep",
              "type": "bytes32"
            },
            {
              "internalType": "bool",
              "name": "allowPublic",
              "type": "bool"
            }
          ],
          "internalType": "struct ZenChainDiary.UserProfile",
          "name": "profile",
          "type": "tuple"
        }
      ],
      "stateMutability": "view",
      "type": "function"
    },
    {
      "inputs": [
        {
          "internalType": "address",
          "name": "",
          "type": "address"
        }
      ],
      "name": "profiles",
      "outputs": [
        {
          "internalType": "bool",
          "name": "registered",
          "type": "bool"
        },
        {
          "internalType": "uint256",
          "name": "registeredAt",
          "type": "uint256"
        },
        {
          "internalType": "euint32",
          "name": "totalEntries",
          "type": "bytes32"
        },
        {
          "internalType": "euint64",
          "name": "sumMood",
          "type": "bytes32"
        },
        {
          "internalType": "euint64",
          "name": "sumStress",
          "type": "bytes32"
        },
        {
          "internalType": "euint64",
          "name": "sumSleep",
          "type": "bytes32"
        },
        {
          "internalType": "bool",
          "name": "allowPublic",
          "type": "bool"
        }
      ],
      "stateMutability": "view",
      "type": "function"
    },
    {
      "inputs": [],
      "name": "protocolId",
      "outputs": [
        {
          "internalType": "uint256",
          "name": "",
          "type": "uint256"
        }
      ],
      "stateMutability": "pure",
      "type": "function"
    },
    {
      "inputs": [
        {
          "internalType": "uint256",
          "name": "",
          "type": "uint256"
        }
      ],
      "name": "publicEntryIds",
      "outputs": [
        {
          "internalType": "uint256",
          "name": "",
          "type": "uint256"
        }
      ],
      "stateMutability": "view",
      "type": "function"
    },
    {
      "inputs": [
        {
          "internalType": "externalEuint8",
          "name": "encryptedMood",
          "type": "bytes32"
        },
        {
          "internalType": "bytes",
          "name": "moodProof",
          "type": "bytes"
        },
        {
          "internalType": "externalEuint8",
          "name": "encryptedStress",
          "type": "bytes32"
        },
        {
          "internalType": "bytes",
          "name": "stressProof",
          "type": "bytes"
        },
        {
          "internalType": "externalEuint8",
          "name": "encryptedSleep",
          "type": "bytes32"
        },
        {
          "internalType": "bytes",
          "name": "sleepProof",
          "type": "bytes"
        },
        {
          "internalType": "externalEuint32",
          "name": "encryptedTags",
          "type": "bytes32"
        },
        {
          "internalType": "bytes",
          "name": "tagsProof",
          "type": "bytes"
        },
        {
          "internalType": "externalEuint256",
          "name": "encryptedTextHash",
          "type": "bytes32"
        },
        {
          "internalType": "bytes",
          "name": "textProof",
          "type": "bytes"
        },
        {
          "internalType": "bool",
          "name": "isPublic",
          "type": "bool"
        }
      ],
      "name": "submitEntry",
      "outputs": [
        {
          "internalType": "uint256",
          "name": "entryId",
          "type": "uint256"
        }
      ],
      "stateMutability": "nonpayable",
      "type": "function"
    },
    {
      "inputs": [],
      "name": "totalEntryCount",
      "outputs": [
        {
          "internalType": "uint256",
          "name": "",
          "type": "uint256"
        }
      ],
      "stateMutability": "view",
      "type": "function"
    },
    {
      "inputs": [
        {
          "internalType": "bool",
          "name": "allowPublic",
          "type": "bool"
        }
      ],
      "name": "updatePrivacySetting",
      "outputs": [],
      "stateMutability": "nonpayable",
      "type": "function"
    }
  ],
  "transactionHash": "0x6072de3e9605e79f34239fae5122675df7e87c048c7f815fead59e76accdd510",
  "args": [],
  "numDeployments": 1,
  "solcInputHash": "e0d8a76ef29fde95f4c3312e7f44556c",
  "bytecode": "0x608060405234610194575f6060610014610198565b8281528260208201528260408201520152731364cbbf2cdf5032c47d8226a6f6fbd2afcdacac6060610044610198565b7350157cffd6bbfa2dece204a89ec419c23ef5755d815273cd3ab3bd6bcc0c0bf3e27912a92043e817b1cf69602082015273a02cda4ca3a71d7c46997716f4283aa851c28812604082015201527350157cffd6bbfa2dece204a89ec419c23ef5755d60018060a01b03195f516020611a4f5f395f51905f525416175f516020611a4f5f395f51905f525573cd3ab3bd6bcc0c0bf3e27912a92043e817b1cf6960018060a01b03195f516020611a0f5f395f51905f525416175f516020611a0f5f395f51905f525573a02cda4ca3a71d7c46997716f4283aa851c2881260018060a01b03195f516020611a2f5f395f51905f525416175f516020611a2f5f395f51905f5255731364cbbf2cdf5032c47d8226a6f6fbd2afcdacac60018060a01b03195f5160206119ef5f395f51905f525416175f5160206119ef5f395f51905f525560405161182390816101cc8239f35b5f80fd5b60405190608082016001600160401b038111838210176101b757604052565b634e487b7160e01b5f52604160045260245ffdfe60806040526004361015610011575f80fd5b5f5f3560e01c8063036861091461087f57806311f7516c146107db57806324b6e2ff1461078f5780632b521c8c1461077157806344a4aeb4146107255780635cd60619146106d95780636d6cd024146106415780636f87c695146105f55780638a320a451461059e578063937220451461052f578063987ee1561461043c5780639d223ff41461041e578063b2a8116a146103e6578063b30906d414610347578063b8523616146102fb578063bae78d7b14610182578063bbe15627146100ff5763da1f12ab146100e0575f80fd5b346100fc57806003193601126100fc5760206040516127118152f35b80fd5b50346100fc5760203660031901126100fc57604060e0916001600160a01b0361012661116d565b168152806020522060ff815416906001810154906002810154600382015460048301549160ff6006600586015495015416946040519615158752602087015260408601526060850152608084015260a0830152151560c0820152f35b50346100fc5760203660031901126100fc57600435816101206040516101a781611183565b8281528260208201528260408201528260608201528260808201528260a08201528260c08201528260e082015282610100820152015280825260016020526001600160a01b03600160408420015416156102ec578160409161014093526001602052206040519061021782611183565b8054918281526001600160a01b03600183015416916020820192835260028101546040830190815260038201546060840190815260048301546080850190815260058401549160a0860192835260068501549360c087019485526001600160a01b03600860078801549760e08a0198895201549860ff6101206101008b019a828d1615158c52019a60081c1615158a526040519a8b52511660208a01525160408901525160608801525160808701525160a08601525160c08501525160e0840152511515610100830152511515610120820152f35b635d47e14960e11b8252600482fd5b50346100fc5760203660031901126100fc5760043580825260016020526001600160a01b03600160408420015416156102ec576040826002926020945260018452200154604051908152f35b50346100fc5760203660031901126100fc57604061014091600435815260016020522060ff8154916001600160a01b03600182015416906002810154600382015460048301546005840154916006850154936008600787015496015496604051998a5260208a015260408901526060880152608087015260a086015260c085015260e0840152818116151561010084015260081c161515610120820152f35b50346100fc5760203660031901126100fc5760406020916001600160a01b0361040d61116d565b168152600283522054604051908152f35b50346100fc57806003193601126100fc576020600454604051908152f35b50346100fc5760203660031901126100fc57604060e0916001600160a01b0361046361116d565b8260c08551610471816111b4565b82815282602082015282878201528260608201528260808201528260a0820152015216815280602052206040516104a7816111b4565b60ff825416151591828252600181015460208301908152600282015460408401908152600383015490606085019182526004840154926080860193845260c060ff600660058801549760a08a01988952015416960195151586526040519687525160208701525160408601525160608501525160808401525160a083015251151560c0820152f35b50346100fc5760603660031901126100fc5761055961054c61116d565b604435906024359061127e565b90604051918291602083016020845282518091526020604085019301915b818110610585575050500390f35b8251845285945060209384019390920191600101610577565b50346100fc5760203660031901126100fc57600435906004548210156100fc576004548210156105e1576020916004825282822001549060031b1c604051908152f35b634e487b7160e01b81526032600452602490fd5b50346100fc5760203660031901126100fc5760043580825260016020526001600160a01b03600160408420015416156102ec576040826004926020945260018452200154604051908152f35b50346100fc5760203660031901126100fc57600435801515908181036106d557610699903384528360205260ff604085205416156106c8575b33845283602052600660408520019060ff801983541691151516179055565b6040519081527f7a997ae88eb4dd9137888f893640e5482ddfe82f8b67a4f071bd28f42c96c46060203392a280f35b6106d0611373565b61067a565b8280fd5b50346100fc5760203660031901126100fc5760043580825260016020526001600160a01b03600160408420015416156102ec576040826005926020945260018452200154604051908152f35b50346100fc5760203660031901126100fc5760043580825260016020526001600160a01b03600160408420015416156102ec576040826006926020945260018452200154604051908152f35b50346100fc57806003193601126100fc576020600354604051908152f35b50346100fc5760203660031901126100fc5760043580825260016020526001600160a01b03600160408420015416156102ec576040826003926020945260018452200154604051908152f35b50346100fc5760203660031901126100fc5760043580825260016020526001600160a01b0360016040842001541633036108715780825260016020526001600160a01b03600160408420015416156102ec57808252600160205260408220600801805461ff001916610100179055337f863d345cb8a315b82cf25ba9b949c03407c0298f0b316ee400d4a2256a96a1948380a380f35b6282b42960e81b8252600482fd5b503461101e5761016036600319011261101e5760243567ffffffffffffffff811161101e576108b2903690600401611116565b909160643567ffffffffffffffff811161101e576108d4903690600401611116565b92909360a43567ffffffffffffffff811161101e576108f7903690600401611116565b91909460e43567ffffffffffffffff811161101e5761091a903690600401611116565b926101243567ffffffffffffffff811161101e5761093c903690600401611116565b91909261014435978815159b8c8a0361101e5760209b61099f6109976109a79361098f6109876109b7996109af98335f5260205f905260ff60405f20541615611109575b36916111f2565b60043561156f565b9a36916111f2565b60443561156f565b9936916111f2565b60843561156f565b9536916111f2565b60846001600160a01b035f5160206117f75f395f51905f525416916040519a8b9163196d0b9b60e01b835260c43560048401523360248401526080604484015280518094819401520160a48c015e5f8a820160a401526020918a5f60a482809560046064830152601f801991011681010301925af19788156110ca575f986110d5575b506001600160a01b037f9e7b61f58c47dc699ac88507c4f5bb9f121c03808c5676a8078fe583e46497005416803b1561101e57604051630f8e573b60e21b8152600481018a9052336024820152905f908290604490829084905af180156110ca576110b0575b5090610aad9136916111f2565b956001600160a01b035f5160206117f75f395f51905f52541660206040519863196d0b9b60e01b8a526101043560048b01523360248b0152608060448b015280519182918260848d01520160a48b015e88810160a401889052602091898960a482809560086064830152601f801991011681010301925af19687156110a5578697611071575b506001600160a01b037f9e7b61f58c47dc699ac88507c4f5bb9f121c03808c5676a8078fe583e46497005416803b1561106d57604051630f8e573b60e21b8152600481018990523360248201529087908290604490829084905af1801561106257908791611049575b5050600354965f19881461103557610c8f60088a938a8a946001820160035560405192610bc884611183565b82845260208401338152604085018a815260608601908d825260808701928d845260a0880194855260c0880195865260408b60e08a0198428a526101008b019e8f526101208b019d8e528152600160205220975188556001600160a01b03600189019151167fffffffffffffffffffffffff00000000000000000000000000000000000000008254161790555160028701555160038601555160048501555160058401555160068301555160078201550192511515839060ff801983541691151516179055565b51151561ff0082549160081b169061ff0019161790558585526001602052610cbe33600260408820015461169e565b8585526001602052610cd733600360408820015461169e565b8585526001602052610cf033600460408820015461169e565b8585526001602052610d0933600560408820015461169e565b8585526001602052610d2233600660408820015461169e565b8585526001602052610d3c6002604087200154309061169e565b8585526001602052610d5530600360408820015461169e565b8585526001602052610d6e30600460408820015461169e565b8585526001602052610d8730600560408820015461169e565b8585526001602052610da030600660408820015461169e565b33855284602052604085209260028401610dbb30825461169e565b6003850190610dcb30835461169e565b6004860192610ddb30855461169e565b6005870194610deb30875461169e565b82545f5160206117f75f395f51905f5254604051639cd07acb60e01b81526001600482015291906001600160a01b0316826044818f602094600460248401525af191821561102a578c92610fe4575b50610eb898610e6f610eb0989795610e6f610eb096610e6f87610e8297610eb09c9950818115610fd4575b15610fc4576117a1565b8755610e7c8954916114be565b9061153d565b8755610e8f30825461169e565b610e9a30845461169e565b610ea530865461169e565b610eb030885461169e565b33905461169e565b33835260026020526040832080549068010000000000000000821015610fb05790610ee891600182018155611144565b81549060031b9086821b915f19901b191617905581610fa1575b50610f46575b508060209260405190428252848201527fa0c817bfaab2eb024b37ab937756391fb53e61c23eb6876b136527dc0f84147960403392a3604051908152f35b6004549068010000000000000000821015610f8d5750602092610f728260018594016004556004611144565b81549060031b9084821b915f19901b19161790559250610f08565b634e487b7160e01b81526041600452602490fd5b60ff915060060154165f610f02565b634e487b7160e01b85526041600452602485fd5b9050610fce611705565b906117a1565b9050610fde611705565b90610e65565b969593949150916020873d602011611022575b81611004602093836111d0565b8101031261101e5795519495929490939291610eb8610e3a565b5f80fd5b3d9150610ff7565b6040513d8e823e3d90fd5b634e487b7160e01b87526011600452602487fd5b81611053916111d0565b61105e57855f610b9c565b8580fd5b6040513d89823e3d90fd5b8680fd5b9096506020813d60201161109d575b8161108d602093836111d0565b8101031261101e5751955f610b33565b3d9150611080565b6040513d88823e3d90fd5b610aad929197505f6110c1916111d0565b5f969091610aa0565b6040513d5f823e3d90fd5b9097506020813d602011611101575b816110f1602093836111d0565b8101031261101e5751965f610a3a565b3d91506110e4565b611111611373565b610980565b9181601f8401121561101e5782359167ffffffffffffffff831161101e576020838186019501011161101e57565b8054821015611159575f5260205f2001905f90565b634e487b7160e01b5f52603260045260245ffd5b600435906001600160a01b038216820361101e57565b610140810190811067ffffffffffffffff8211176111a057604052565b634e487b7160e01b5f52604160045260245ffd5b60e0810190811067ffffffffffffffff8211176111a057604052565b90601f8019910116810190811067ffffffffffffffff8211176111a057604052565b92919267ffffffffffffffff82116111a0576040519161121c601f8201601f1916602001846111d0565b82948184528183011161101e578281602093845f960137010152565b67ffffffffffffffff81116111a05760051b60200190565b9190820180921161125d57565b634e487b7160e01b5f52601160045260245ffd5b9190820391821161125d57565b6001600160a01b039093929193165f52600260205260405f209081549081851015611356576112ad9085611250565b8482821161134e575b6112bf91611271565b906112c982611238565b926112d760405194856111d0565b828452601f196112e684611238565b0136602086013783955f5f198401938411905b8581106113095750505050505050565b8161125d5761132a61132461131e8386611250565b87611271565b85611144565b90549060031b1c9087518110156111595760019160208260051b8a010152016112f9565b8291506112b6565b50505090506040516113696020826111d0565b5f81525f36813790565b61143061137e611705565b6006611388611753565b91611391611753565b611399611753565b90604051946113a7866111b4565b60018652602086019342855260408701908152606087019182526080870192835260a0870193845260c087019460018652335f525f6020526113fc60405f2098511515899060ff801983541691151516179055565b51600188015551600287015551600386015551600485015551600584015551151591019060ff801983541691151516179055565b335f525f60205261144833600260405f20015461169e565b335f525f60205261146033600360405f20015461169e565b335f525f60205261147833600460405f20015461169e565b335f525f60205261149033600560405f20015461169e565b6040514281527fe29d35093005f4d575e1003753426b57a7f64378ba73332eef9c6ccc2b8decd660203392a2565b60205f9160446001600160a01b035f5160206117f75f395f51905f5254169160405194859384926307227b9160e21b84526004840152600560248401525af19081156110ca575f9161150e575090565b90506020813d602011611535575b81611529602093836111d0565b8101031261101e575190565b3d915061151c565b90611554918015611561575b8115611557576117a1565b90565b9050610fce611753565b5061156a611753565b611549565b919060205f5160206117f75f395f51905f5254916040519463196d0b9b60e01b865260048601523360248601526080604486015280519182918260848801520160a486015e5f84820160a40152602091845f6001600160a01b0360a483809660026064830152601f80199101168101030193165af19182156110ca575f9261166a575b50816001600160a01b037f9e7b61f58c47dc699ac88507c4f5bb9f121c03808c5676a8078fe583e46497005416803b1561101e57604051630f8e573b60e21b815260048101929092523360248301525f908290818381604481015b03925af180156110ca5761165e5750565b5f611668916111d0565b565b9091506020813d602011611696575b81611686602093836111d0565b8101031261101e5751905f6115f2565b3d9150611679565b6001600160a01b037f9e7b61f58c47dc699ac88507c4f5bb9f121c03808c5676a8078fe583e4649700541691823b1561101e57604051635ca4b5b160e11b815260048101929092526001600160a01b03166024820152905f9082908183816044810161164d565b5f5160206117f75f395f51905f5254604051639cd07acb60e01b81525f6004820152906001600160a01b0316816044815f602094600460248401525af19081156110ca575f9161150e575090565b5f5160206117f75f395f51905f5254604051639cd07acb60e01b81525f6004820152906001600160a01b0316816044815f602094600560248401525af19081156110ca575f9161150e575090565b9060209060646001600160a01b035f5160206117f75f395f51905f525416935f604051958694859363022f65e760e31b8552600485015260248401528160448401525af19081156110ca575f9161150e57509056fe9e7b61f58c47dc699ac88507c4f5bb9f121c03808c5676a8078fe583e4649701a164736f6c634300081b000a9e7b61f58c47dc699ac88507c4f5bb9f121c03808c5676a8078fe583e46497039e7b61f58c47dc699ac88507c4f5bb9f121c03808c5676a8078fe583e46497019e7b61f58c47dc699ac88507c4f5bb9f121c03808c5676a8078fe583e46497029e7b61f58c47dc699ac88507c4f5bb9f121c03808c5676a8078fe583e4649700",
  "devdoc": {
    "author": "ZenChain Team",
    "details": "Stores encrypted mood/stress/sleep scores and tags on-chain",
    "kind": "dev",
    "methods": {
      "deleteEntry(uint256)": {
        "params": {
          "entryId": "Entry ID to delete"
        }
      },
      "getEntry(uint256)": {
        "params": {
          "entryId": "Entry ID"
        },
        "returns": {
          "entry": "The diary entry"
        }
      },
      "getEntryMoodScore(uint256)": {
        "params": {
          "entryId": "Entry ID"
        },
        "returns": {
          "_0": "Encrypted mood score"
        }
      },
      "getEntryMoodTags(uint256)": {
        "params": {
          "entryId": "Entry ID"
        },
        "returns": {
          "_0": "Encrypted mood tags"
        }
      },
      "getEntrySleepQuality(uint256)": {
        "params": {
          "entryId": "Entry ID"
        },
        "returns": {
          "_0": "Encrypted sleep quality"
        }
      },
      "getEntryStressScore(uint256)": {
        "params": {
          "entryId": "Entry ID"
        },
        "returns": {
          "_0": "Encrypted stress score"
        }
      },
      "getEntryTextHash(uint256)": {
        "params": {
          "entryId": "Entry ID"
        },
        "returns": {
          "_0": "Encrypted diary text hash"
        }
      },
      "getPublicEntryCount()": {
        "returns": {
          "count": "Public entry count"
        }
      },
      "getUserEntries(address,uint256,uint256)": {
        "params": {
          "limit": "Maximum number of entries to return",
          "offset": "Starting index",
          "user": "User address"
        },
        "returns": {
          "entryIds": "Array of entry IDs"
        }
      },
      "getUserEntryCount(address)": {
        "params": {
          "user": "User address"
        },
        "returns": {
          "count": "Total entry count"
        }
      },
      "getUserProfile(address)": {
        "params": {
          "user": "User address"
        },
        "returns": {
          "profile": "User profile"
        }
      },
      "submitEntry(bytes32,bytes,bytes32,bytes,bytes32,bytes,bytes32,bytes,bytes32,bytes,bool)": {
        "params": {
          "encryptedMood": "Encrypted mood score (1-10)",
          "encryptedSleep": "Encrypted sleep quality (1-10)",
          "encryptedStress": "Encrypted stress score (1-10)",
          "encryptedTags": "Encrypted mood tags (bitmask)",
          "encryptedTextHash": "Encrypted text hash/summary",
          "isPublic": "Whether to participate in global stats"
        },
        "returns": {
          "entryId": "The ID of the created entry"
        }
      },
      "updatePrivacySetting(bool)": {
        "params": {
          "allowPublic": "New privacy setting"
        }
      }
    },
    "title": "ZenChainDiary - Encrypted Mental Health Diary",
    "version": 1
  },
  "userdoc": {
    "kind": "user",
    "methods": {
      "deleteEntry(uint256)": {
        "notice": "Soft delete an entry (marks as deleted, doesn't remove from chain)"
      },
      "entries(uint256)": {
        "notice": "Mapping from entry ID to entry"
      },
      "getEntry(uint256)": {
        "notice": "Get a diary entry (read-only, returns encrypted handles)"
      },
      "getEntryMoodScore(uint256)": {
        "notice": "Get encrypted mood score for an entry (workaround for Mock env struct field limitation)"
      },
      "getEntryMoodTags(uint256)": {
        "notice": "Get encrypted mood tags for an entry"
      },
      "getEntrySleepQuality(uint256)": {
        "notice": "Get encrypted sleep quality for an entry"
      },
      "getEntryStressScore(uint256)": {
        "notice": "Get encrypted stress score for an entry"
      },
      "getEntryTextHash(uint256)": {
        "notice": "Get encrypted diary text hash for an entry"
      },
      "getPublicEntryCount()": {
        "notice": "Get total number of public entries"
      },
      "getUserEntries(address,uint256,uint256)": {
        "notice": "Get user's entry IDs with pagination"
      },
      "getUserEntryCount(address)": {
        "notice": "Get total number of user entries"
      },
      "getUserProfile(address)": {
        "notice": "Get user profile"
      },
      "profiles(address)": {
        "notice": "Mapping from user address to profile"
      },
      "publicEntryIds(uint256)": {
        "notice": "Array of public entry IDs (for global stats)"
      },
      "submitEntry(bytes32,bytes,bytes32,bytes,bytes32,bytes,bytes32,bytes,bytes32,bytes,bool)": {
        "notice": "Submit a new diary entry"
      },
      "totalEntryCount()": {
        "notice": "Global entry counter"
      },
      "updatePrivacySetting(bool)": {
        "notice": "Update privacy setting for participating in global stats"
      }
    },
    "notice": "A privacy-preserving mental health diary using FHEVM",
    "version": 1
  },
  "storageLayout": {
    "storage": [
      {
        "astId": 39094,
        "contract": "contracts/ZenChainDiary.sol:ZenChainDiary",
        "label": "profiles",
        "offset": 0,
        "slot": "0",
        "type": "t_mapping(t_address,t_struct(UserProfile)39061_storage)"
      },
      {
        "astId": 39100,
        "contract": "contracts/ZenChainDiary.sol:ZenChainDiary",
        "label": "entries",
        "offset": 0,
        "slot": "1",
        "type": "t_mapping(t_uint256,t_struct(DiaryEntry)39088_storage)"
      },
      {
        "astId": 39106,
        "contract": "contracts/ZenChainDiary.sol:ZenChainDiary",
        "label": "userEntryIds",
        "offset": 0,
        "slot": "2",
        "type": "t_mapping(t_address,t_array(t_uint256)dyn_storage)"
      },
      {
        "astId": 39109,
        "contract": "contracts/ZenChainDiary.sol:ZenChainDiary",
        "label": "totalEntryCount",
        "offset": 0,
        "slot": "3",
        "type": "t_uint256"
      },
      {
        "astId": 39113,
        "contract": "contracts/ZenChainDiary.sol:ZenChainDiary",
        "label": "publicEntryIds",
        "offset": 0,
        "slot": "4",
        "type": "t_array(t_uint256)dyn_storage"
      }
    ],
    "types": {
      "t_address": {
        "encoding": "inplace",
        "label": "address",
        "numberOfBytes": "20"
      },
      "t_array(t_uint256)dyn_storage": {
        "base": "t_uint256",
        "encoding": "dynamic_array",
        "label": "uint256[]",
        "numberOfBytes": "32"
      },
      "t_bool": {
        "encoding": "inplace",
        "label": "bool",
        "numberOfBytes": "1"
      },
      "t_mapping(t_address,t_array(t_uint256)dyn_storage)": {
        "encoding": "mapping",
        "key": "t_address",
        "label": "mapping(address => uint256[])",
        "numberOfBytes": "32",
        "value": "t_array(t_uint256)dyn_storage"
      },
      "t_mapping(t_address,t_struct(UserProfile)39061_storage)": {
        "encoding": "mapping",
        "key": "t_address",
        "label": "mapping(address => struct ZenChainDiary.UserProfile)",
        "numberOfBytes": "32",
        "value": "t_struct(UserProfile)39061_storage"
      },
      "t_mapping(t_uint256,t_struct(DiaryEntry)39088_storage)": {
        "encoding": "mapping",
        "key": "t_uint256",
        "label": "mapping(uint256 => struct ZenChainDiary.DiaryEntry)",
        "numberOfBytes": "32",
        "value": "t_struct(DiaryEntry)39088_storage"
      },
      "t_struct(DiaryEntry)39088_storage": {
        "encoding": "inplace",
        "label": "struct ZenChainDiary.DiaryEntry",
        "members": [
          {
            "astId": 39064,
            "contract": "contracts/ZenChainDiary.sol:ZenChainDiary",
            "label": "id",
            "offset": 0,
            "slot": "0",
            "type": "t_uint256"
          },
          {
            "astId": 39066,
            "contract": "contracts/ZenChainDiary.sol:ZenChainDiary",
            "label": "author",
            "offset": 0,
            "slot": "1",
            "type": "t_address"
          },
          {
            "astId": 39069,
            "contract": "contracts/ZenChainDiary.sol:ZenChainDiary",
            "label": "moodScore",
            "offset": 0,
            "slot": "2",
            "type": "t_userDefinedValueType(euint8)39977"
          },
          {
            "astId": 39072,
            "contract": "contracts/ZenChainDiary.sol:ZenChainDiary",
            "label": "stressScore",
            "offset": 0,
            "slot": "3",
            "type": "t_userDefinedValueType(euint8)39977"
          },
          {
            "astId": 39075,
            "contract": "contracts/ZenChainDiary.sol:ZenChainDiary",
            "label": "sleepQuality",
            "offset": 0,
            "slot": "4",
            "type": "t_userDefinedValueType(euint8)39977"
          },
          {
            "astId": 39078,
            "contract": "contracts/ZenChainDiary.sol:ZenChainDiary",
            "label": "moodTags",
            "offset": 0,
            "slot": "5",
            "type": "t_userDefinedValueType(euint32)39983"
          },
          {
            "astId": 39081,
            "contract": "contracts/ZenChainDiary.sol:ZenChainDiary",
            "label": "diaryTextHash",
            "offset": 0,
            "slot": "6",
            "type": "t_userDefinedValueType(euint256)40039"
          },
          {
            "astId": 39083,
            "contract": "contracts/ZenChainDiary.sol:ZenChainDiary",
            "label": "timestamp",
            "offset": 0,
            "slot": "7",
            "type": "t_uint256"
          },
          {
            "astId": 39085,
            "contract": "contracts/ZenChainDiary.sol:ZenChainDiary",
            "label": "isPublic",
            "offset": 0,
            "slot": "8",
            "type": "t_bool"
          },
          {
            "astId": 39087,
            "contract": "contracts/ZenChainDiary.sol:ZenChainDiary",
            "label": "isDeleted",
            "offset": 1,
            "slot": "8",
            "type": "t_bool"
          }
        ],
        "numberOfBytes": "288"
      },
      "t_struct(UserProfile)39061_storage": {
        "encoding": "inplace",
        "label": "struct ZenChainDiary.UserProfile",
        "members": [
          {
            "astId": 39044,
            "contract": "contracts/ZenChainDiary.sol:ZenChainDiary",
            "label": "registered",
            "offset": 0,
            "slot": "0",
            "type": "t_bool"
          },
          {
            "astId": 39046,
            "contract": "contracts/ZenChainDiary.sol:ZenChainDiary",
            "label": "registeredAt",
            "offset": 0,
            "slot": "1",
            "type": "t_uint256"
          },
          {
            "astId": 39049,
            "contract": "contracts/ZenChainDiary.sol:ZenChainDiary",
            "label": "totalEntries",
            "offset": 0,
            "slot": "2",
            "type": "t_userDefinedValueType(euint32)39983"
          },
          {
            "astId": 39052,
            "contract": "contracts/ZenChainDiary.sol:ZenChainDiary",
            "label": "sumMood",
            "offset": 0,
            "slot": "3",
            "type": "t_userDefinedValueType(euint64)39991"
          },
          {
            "astId": 39055,
            "contract": "contracts/ZenChainDiary.sol:ZenChainDiary",
            "label": "sumStress",
            "offset": 0,
            "slot": "4",
            "type": "t_userDefinedValueType(euint64)39991"
          },
          {
            "astId": 39058,
            "contract": "contracts/ZenChainDiary.sol:ZenChainDiary",
            "label": "sumSleep",
            "offset": 0,
            "slot": "5",
            "type": "t_userDefinedValueType(euint64)39991"
          },
          {
            "astId": 39060,
            "contract": "contracts/ZenChainDiary.sol:ZenChainDiary",
            "label": "allowPublic",
            "offset": 0,
            "slot": "6",
            "type": "t_bool"
          }
        ],
        "numberOfBytes": "224"
      },
      "t_uint256": {
        "encoding": "inplace",
        "label": "uint256",
        "numberOfBytes": "32"
      },
      "t_userDefinedValueType(euint256)40039": {
        "encoding": "inplace",
        "label": "euint256",
        "numberOfBytes": "32"
      },
      "t_userDefinedValueType(euint32)39983": {
        "encoding": "inplace",
        "label": "euint32",
        "numberOfBytes": "32"
      },
      "t_userDefinedValueType(euint64)39991": {
        "encoding": "inplace",
        "label": "euint64",
        "numberOfBytes": "32"
      },
      "t_userDefinedValueType(euint8)39977": {
        "encoding": "inplace",
        "label": "euint8",
        "numberOfBytes": "32"
      }
    }
  }
}